:020000040800F2
:1000000000000120D501000821020008210200089B
:10001000210200082102000821020008000000005F
:1000200000000000000000000000000021020008A5
:10003000210200080000000021020008CD0A00088B
:100040002102000821020008210200082102000804
:100050002102000821020008390C00082D0C0008BC
:10006000210C0008150C0008090C000821020008EA
:1000700021020008210200082102000821020008D4
:1000800021020008210200082102000800000000EF
:10009000000000000000000000000000CD0B000880
:1000A00021020008210200082102000821020008A4
:1000B000C10A0008B50A00084D080008A50B000891
:1000C000B50B0008B10B0008AD0B000821020008B9
:1000D000210200082102000821020008000000009F
:1000E000B90B0008210200082102000800000000EE
:1000F00000000000000000000000000021020008D5
:100100000000000021020008410800082102000848
:1001100000000000000000000000000000000000DF
:100120002102000821020008210200082102000823
:100130002102000800000000000000000000000094
:100140000000000000000000000000002102000884
:1001500021020008210200082102000821020008F3
:10016000A90B0008A10B000800000000000000001F
:10017000000000000000000000000000000000007F
:100180000000000021020008000000000000000044
:040190002102000840
:1001940010B5054C237833B9044B13B10448AFF3BD
:1001A40000800123237010BD000000200000000027
:1001B400440C000808B5034B1BB103490348AFF3D3
:1001C400008008BD0000000004000020440C00086A
:1001D400DFF830D0002103E00B4B5B58435004316F
:1001E4000A480B4B42189A42F6D30A4A02E000230B
:1001F40042F8043B084B9A42F9D300F085F800F02A
:10020400FFF8704700000120740C00080000002073
:10021400000000200000002094000020FEE7000001
:1002240010B4334B5A6852023ED4324A30494B68B8
:100234005B020BD44B6830484968C3F3881301F060
:100244003F01B3FBF1F300FB03F31360284B284990
:100254009B6813F00C0F04BF274B5360244B9B681F
:10026400C3F38103012B04BF244B53608B68C3F396
:100274008103022B32D053681D4921488C68C4F392
:100284000314045DE34093608C68C4F38224045D2A
:1002940023FA04F4D4608968C1F34231415CCB4051
:1002A40013615DF8044B704759685B689FED156AEC
:1002B400104AC1F3881107EE901A03F03F03F8EED9
:1002C400E76A07EE903AB8EEE77AC6EE877A67EE09
:1002D400867AFCEEE77AC2ED007AA7E749681368EC
:1002E400C1F3014101314900B3FBF1F35360C3E7AA
:1002F400003802401C0000200024F40040787D01F6
:100304005C0C000820BCBE4B3749384BD1F8882020
:10031400374842F47002C1F888201A68002142F07C
:1003240001021A6099601A6822F0847222F4803201
:100334001A6058601A6882B022F480221A60D96068
:10034400009101911A6842F480321A6003E0009A25
:10035400B2F5A04F09D01A6802F400320192009A53
:1003640001320092019A002AF1D0204B1B6813F449
:10037400003318BF01230193019B012B05D01A4BB5
:100384004FF000629A6002B07047184B19491A6C1A
:10039400194842F080521A640A6842F440420A60E2
:1003A4009A689A609A689A609A6842F480529A604D
:1003B40058601A6842F080721A601A689201FCD57B
:1003C4000E4A0A4940F2027010609A6822F0030251
:1003D4009A609A6842F002029A608B6803F00C03F8
:1003E400082BFAD1CBE700BF00ED00E00038024053
:1003F400103000240070004019544107003C0240B2
:100404002DE98848BB49DFF83CE3086CBA4DDEF8B7
:1004140000602A68B94BDFF83093B94CB94FDFF864
:100424002CA3DFF82C83DFF82CC340F08050086441
:10043400086B40F001000863086B40F00200086399
:10044400086B40F004000863486C40F00100486405
:10045400086C40F001000864086C40F00200086475
:10046400086C40F004000864086B40F480000863E2
:10047400486C40F480704864486C40F01000486454
:10048400486C40F020004864086C40F40010086494
:10049400486C40F480404864D9F80010188B80B24E
:1004A40046F2600B20404BEA00001883988B80B220
:1004B40020409883188B80B240F4806040F00400A0
:1004C4001883988B20F4806020F004000004000C52
:1004D4009883188C20F4885020F0110000043740D1
:1004E400000C894E40F0110018843E4322F4EE4281
:1004F400188DCEF8006022F03D0253261E852A6036
:10050400DAF80050814A8248824F834E2A4042F4EE
:10051400D51242F4E062CAF80020804A0A4042F44C
:10052400A12242F42872C9F80020D8F80020DFF88C
:10053400EC9105687A4902EA09097A4A2A4049EAAB
:10054400010142F00042C8F80010AEF57F7E42F48B
:10055400A042D96A0260DEF80020734DDFF8C4813E
:1005640001F0C80022F407493A68D862DCF80000B8
:10057400316802EA080829F0F0092A68CEF80090E8
:10058400DFF8D4E120F0FF0021F07F4122F0FF02E8
:1005940040F0110048EA0E0E41F0085142F04402C6
:1005A400CCF80000C7F800E031602A6019885F4A7F
:1005B4005F4EDFF8A88189B241F001011980B3F8D8
:1005C40044106FEA41416FEA514189B2A3F84410E3
:1005D400B3F8441089B24FF08045002741F48041BC
:1005E400A3F844105F639F632B8B9BB223404BEAB9
:1005F40003032B83AB8B9BB21C404BEA040BA5F883
:100604001CB02B8B9BB243F4806343F004032B8315
:10061400AB8B9BB243F4806343F00403AB832B8C1A
:100624009BB243F4885343F011032B8440F2A31389
:10063400298D2B85EB6A03F00103EB622B889BB2B7
:1006440043F001032B80B5F844306FEA43436FEA6B
:1006540053439BB2A5F84430B5F844309BB243F4FD
:100664008043A5F844306F63AF631785D36AD362C0
:1006740013889BB243F00103138013899BB223F0C8
:10068400070343F00303138113899BB243F470639C
:1006940013817762FFF7C4FDD8F80C30254A264948
:1006A400A2FB0302920C0B603285318D642289B265
:1006B40002FB01F2B3FBF2F3F362338D013B9BB215
:1006C4003385B3899BB243F00103B38133889BB272
:1006D40043F001033380FFF7A3FDD8F81020174936
:1006E400174B02F59652A1FB0212C2F38F221A8114
:1006F40036E000BF0038024004040240000001401C
:100704008F8FFFFF0FF0C0C003001A15FF03C03F17
:100714000C00024008000240200002400CF0C0C05F
:10072400A20A2A2AFF00C03F240402400004004019
:100734000008004083DE1B4378000020B5814E1B77
:1007440000100140000402400C040240000002407A
:100754000804024024000240000A2A801C000020F1
:100764009A8992B242F008029A819A8992B242F02E
:1007740004029A819A8992B242F400529A81FFF754
:100784004FFDD8F810302149214A03F56143A1FBFC
:1007940003131B0C138193899BB243F008039381C9
:1007A40093899BB243F4005393811A4B1D601A49F9
:1007B400DFF880C0194D4D60194B1A481A4E1B4C76
:1007C400DFF874804FF0F00E07258CF823E0002248
:1007D4008F604FF07F5E0D604FF07C5C144DC3F86A
:1007E400008001274FF07E51C3F804E0C3F808C02D
:1007F40083F83470DE631D629962DC629A635A6125
:100804009A61DA615A620260FEE700BFC5B3A29141
:100814000014014000E100E010E000E01F48010086
:100824003400002074000020000048420AD7A33D91
:100834000000C04000ED00E00000A040014B002299
:100844001A827047000C00408E4B8F4AD3ED007A19
:10085400B2F90020B7EE007AF4EEC77AF1EE10FA9E
:1008640006EE102A40F3C88083ED007AF0EE477A52
:100874009FED865A9FED864A864A874BD2ED004A01
:10088400D3ED076AC3ED037AB8EEC66A93ED087A2E
:10089400D3ED055A7C4926EE056A002086EE045AFB
:1008A400B0EE646A77EEC57AA5EE046A77EEA66ABE
:1008B40082ED006AF4EEC76A37EEE56AF1EE10FAEB
:1008C400C3ED076A83ED045AC8BFF0EE476AC3ED6F
:1008D400067A83ED096AC3ED057A0860C8BF83ED23
:1008E400077AB1EE477AB4EEE67A93F83420F1EE63
:1008F40010FAC8BF83ED077A002A6AD0D3ED016AE3
:10090400D3ED074A93ED005AD3ED025A93ED0A7AD8
:1009140066EEA46AE7EE856AE6EE256AF4EEC76A37
:10092400F1EE10FAC3ED0C6A38DD83ED0C7AD3EDE9
:100934000B6AF4EEC76AF1EE10FA07DDF1EE666AAF
:10094400F4EEC76AF1EE10FA00F18280D3ED0F6A7B
:10095400F4EEC76AF1EE10FA06DBF1EE666AF4EE25
:10096400C76AF1EE10FA61D9002283F83520B5EE9A
:10097400C07AF1EE10FA494B1ADAF7EE007AB4EEC7
:10098400E77A4FF48042F1EE10FA1A6067DD444BC7
:10099400C8221A60434B00221A827047B1EE477A8C
:1009A400F4EEC76AF1EE10FABFD4B0EE667ABEE791
:1009B400F7EE007AB4EEE77A4FF08042F1EE10FAE7
:1009C4001A6025DDC823364A1360364B00221A828A
:1009D40070479FED357A314983F835204FF08042D6
:1009E40083ED0C7A0A60DFED317A27EE277AFDEE8B
:1009F400C77A17EE903AE6E7BFEE007AF4EEC77ACC
:100A0400F1EE10FA44BFF0EE477A83ED007A2FE757
:100A1400FFEE007AB4EEE77AF1EE10FAE3D5204B5C
:100A240000221A601F4B00221A827047D3ED0E6A0F
:100A3400F4EEE67AF1EE10FA96D8F1EE666AF4EE88
:100A4400E67AF1EE10FA8FDB012283F835208EE787
:100A5400DFED156AB0EE667AC3ED0C6A76E7FFEE59
:100A6400007AB4EEE77AF1EE10FA48BF0023AAD474
:100A7400DFED0E7AE7EE277AFDEEE77A17EE903A8D
:100A8400A1E700BF3000002024040040CF23DE365D
:100A94000AD7233C740000203400002018040240CC
:100AA40034000140000800400000000000004843FA
:100AB400014B00221A827047000400404FF080432B
:100AC40000221A82704700BF38B5FFF7A9FB2E4BEE
:100AD4002E4A19692E4B116093ED0D3AD3ED0B6A32
:100AE400D3ED0E3A93ED0B7A93ED0F4AD3ED0B7AD7
:100AF400D3ED104A93ED0B5ADFED265A264D1C8D8B
:100B04002868DB6AF8EE666AB8EE477AF8EE677A28
:100B1400B8EE433AF8EE633AB8EE444AF8EE644A63
:100B2400B8EE455A83EE266AA4B2013004FB0333BF
:100B3400B1FBF3F151612860C3EE876A84EE277A32
:100B4400C4EE857A26EE256A66EEA56A27EE257A36
:100B540067EEA57ABCEEC66AFCEEE66ABCEEC77A1E
:100B6400FCEEE77AB8EE466AF8EE666AB8EE477AC3
:100B7400F8EE677A82ED016AC2ED026A82ED037AC9
:100B8400C2ED047A38BD00BF1C00002078000020AC
:100B9400000001400000C84290000020704700BFE0
:100BA400704700BF704700BF704700BF704700BF69
:100BB400704700BF034B5A69520544BF4FF480622B
:100BC4005A617047003C01400D4B5A69520644BFBC
:100BD40040225A610A4B5A69100644BF80225A6166
:100BE400074B5A69D10544BF4FF480725A61044BD4
:100BF4005A69920544BF4FF400725A61704700BFAE
:100C0400003C0140014B10225A617047003C0140F6
:100C1400014B08225A617047003C0140014B0422F9
:100C24005A617047003C0140014B02225A617047EF
:100C3400003C0140014B01225A617047003C0140D5
:100C4400F8B500BFF8BC08BC9E467047F8B500BFB5
:080C5400F8BC08BC9E46704785
:100C5C000000000001020304010203040607080956
:040C6C00B9010008C2
:040C700095010008E2
:04000005080001D519
:00000001FF
