:020000040800F2
:1000000000000120D501000821020008210200089B
:10001000210200082102000821020008000000005F
:1000200000000000000000000000000021020008A5
:10003000210200080000000021020008210200083F
:100040002102000821020008210200082102000804
:100050002102000821020008890800087D08000824
:100060007108000865080008590800082102000806
:1000700021020008210200082102000821020008D4
:1000800021020008210200082102000800000000EF
:100090000000000000000000000000001D08000833
:1000A00021020008210200082102000821020008A4
:1000B000E5070008D9070008CD070008F507000884
:1000C0000508000801080008FD07000821020008D3
:1000D000210200082102000821020008000000009F
:1000E00009080008210200082102000800000000A1
:1000F00000000000000000000000000021020008D5
:100100000000000021020008C107000821020008C9
:1001100000000000000000000000000000000000DF
:100120002102000821020008210200082102000823
:100130002102000800000000000000000000000094
:100140000000000000000000000000002102000884
:1001500021020008210200082102000821020008F3
:10016000F9070008F1070008000000000000000087
:10017000000000000000000000000000000000007F
:100180000000000021020008000000000000000044
:040190002102000840
:1001940010B5054C237833B9044B13B10448AFF3BD
:1001A40000800123237010BD000000200000000027
:1001B4009408000808B5034B1BB103490348AFF387
:1001C400008008BD0000000004000020940800081E
:1001D400DFF830D0002103E00B4B5B58435004316F
:1001E4000A480B4B42189A42F6D30A4A02E000230B
:1001F40042F8043B084B9A42F9D300F085F800F02A
:10020400FFF8704700000120C40800080000002027
:10021400000000200000002048000020FEE700004D
:1002240010B4334B5A68520247D4324A30494B68AF
:100234005B020BD44B6830484968C3F3881301F060
:100244003F01B3FBF1F300FB03F31360284B284990
:100254009B6813F00C0F04BF274B5360244B9B681F
:10026400C3F38103012B04BF244B53608B68C3F396
:100274008103022B08D14B681168C3F30143013396
:100284005B00B1FBF3F3536019491D488C68536854
:10029400C4F30314045DE34093608C68C4F38224C4
:1002A400045D23FA04F4D4608968C1F34231415CEB
:1002B400CB4013615DF8044B704759685B689FED50
:1002C400116A0C4AC1F3881107EE901A03F03F0338
:1002D400F8EEE76A07EE903AB8EEE77AC6EE877A68
:1002E40067EE867AFCEEE77AC2ED007A9EE700BFFD
:1002F400003802401C0000200024F40040787D01F6
:10030400AC08000820BCBE4B3749384BD1F88820D4
:10031400374842F47002C1F888201A68002142F07C
:1003240001021A6099601A6822F0847222F4803201
:100334001A6058601A6882B022F480221A60D96068
:10034400009101911A6842F480321A6003E0009A25
:10035400B2F5A04F09D01A6802F400320192009A53
:1003640001320092019A002AF1D0204B1B6813F449
:10037400003318BF01230193019B012B05D01A4BB5
:100384004FF000629A6002B07047184B19491A6C1A
:10039400194842F080521A640A6842F440420A60E2
:1003A4009A689A609A689A609A6842F480529A604D
:1003B40058601A6842F080721A601A689201FCD57B
:1003C4000E4A0A4940F2027010609A6822F0030251
:1003D4009A609A6842F002029A608B6803F00C03F8
:1003E400082BFAD1CBE700BF00ED00E00038024053
:1003F400103000240070004019544107003C0240B2
:100404002DE98848B949DFF838E3086CB84DDEF8BF
:1004140000602A68B74BDFF82C93B74CB74FDFF86E
:1004240028A3DFF82883DFF828C340F0805008644D
:10043400086B40F001000863086B40F00200086399
:10044400086B40F004000863486C40F00100486405
:10045400086C40F001000864086C40F00200086475
:10046400086C40F004000864086B40F480000863E2
:10047400486C40F480704864486C40F01000486454
:10048400486C40F020004864086C40F40010086494
:10049400486C40F480404864D9F80010188B80B24E
:1004A40046F2600B20404BEA00001883988B80B220
:1004B40020409883188B80B240F4806040F00400A0
:1004C4001883988B20F4806020F004000004000C52
:1004D4009883188C20F4885020F0110000043740D1
:1004E400000C874E40F0110018843E4322F4EE4283
:1004F400188DCEF8006022F03D0253261E852A6036
:10050400DAF800507F4A8048804F814E2A4042F4F6
:10051400D51242F4E062CAF800207E4A0A4042F44E
:10052400A12242F42872C9F80020D8F80020DFF88C
:10053400E4910568784902EA0909784A2A4049EAB7
:10054400010142F00042C8F80010AEF57F7E42F48B
:10055400A042D96A0260DEF80020714DDFF8BC8148
:1005640001F0C80022F407493A68D862DCF80000B8
:10057400316802EA080829F0F0092A68CEF80090E8
:10058400DFF8D0E120F0FF0021F07F4122F0FF02EC
:1005940048EA0E0E40F0110041F0085142F04402C6
:1005A400CCF80000C7F800E031602A6019885D4A81
:1005B4005D4E5E4F89B241F001011980B3F84410D9
:1005C4006FEA41416FEA514189B2A3F84410B3F88C
:1005D400440080B24FF08045002140F48040A3F8ED
:1005E4004400596399632B8B9BB223404BEA03036A
:1005F4002B83AB8B9BB21C404BEA040BA5F81CB0BD
:100604002B8B9BB243F4806343F004032B83AB8BAB
:100614009BB243F4806343F00403AB832B8C9BB203
:1006240043F4885343F011032B8440F2A313288D21
:100634002B85EB6A03F00103EB622B889BB243F03A
:1006440001032B80B5F844306FEA43436FEA534308
:100654009BB2A5F84430B5F844309BB243F48043D0
:10066400A5F844306963A9631185D36AD3621388FA
:100674009BB243F00103138013899BB223F0070359
:1006840043F00303138113899BB243F47063138112
:100694007162FFF7C5FDFB68254A2649A2FB0302E8
:1006A400920C0B603285318D642289B202FB01F217
:1006B400B3FBF2F3F362338D013B9BB23385B38911
:1006C4009BB243F00103B38133889BB243F001032F
:1006D4003380FFF7A5FD3A691749184B02F5965286
:1006E400A1FB0212C2F38F221A8135E000380240C6
:1006F40004040240000001408F8FFFFF0FF0C0C0D0
:1007040003001A15FF03C03F0C000240080002401A
:10071400200002400CF0C0C0A20A2A2AFF00C03FF9
:100724002404024000040040000800401C00002093
:1007340083DE1B4330000020B5814E1B00100140B6
:10074400000402400C04024000000240080402407D
:1007540024000240000A2A809A8992B242F00802D8
:100764009A819A8992B242F004029A819A8992B249
:1007740042F400529A81FFF753FD3B690B490C4A3E
:1007840003F56143A1FB03131B0C138193899BB2F3
:1007940043F00803938193899BB243F400539381FC
:1007A400044B1D60044B1D60FEE700BFC5B3A2915E
:1007B4000014014000E100E018040240014B002253
:1007C4001A827047000C0040014B00221A827047C5
:1007D40000080040014B00221A82704700040040C8
:1007E4004FF0804300221A82704700BF704700BF59
:1007F400704700BF704700BF704700BF704700BF1D
:10080400704700BF034B5A69520544BF4FF48062DE
:100814005A617047003C01400D4B5A69520644BF6F
:1008240040225A610A4B5A69100644BF80225A6119
:10083400074B5A69D10544BF4FF480725A61044B87
:100844005A69920544BF4FF400725A61704700BF61
:10085400003C0140014B10225A617047003C0140AA
:10086400014B08225A617047003C0140014B0422AD
:100874005A617047003C0140014B02225A617047A3
:10088400003C0140014B01225A617047003C014089
:10089400F8B500BFF8BC08BC9E467047F8B500BF69
:0808A400F8BC08BC9E46704739
:1008AC00000000000102030401020304060708090A
:0408BC00B901000876
:0408C0009501000896
:04000005080001D519
:00000001FF
